{
  "contractName": "Review",
  "abi": [
    {
      "constant": true,
      "inputs": [
        {
          "name": "",
          "type": "uint256"
        }
      ],
      "name": "rating",
      "outputs": [
        {
          "name": "",
          "type": "uint256"
        }
      ],
      "payable": false,
      "stateMutability": "view",
      "type": "function"
    },
    {
      "constant": true,
      "inputs": [
        {
          "name": "",
          "type": "uint256"
        }
      ],
      "name": "users",
      "outputs": [
        {
          "name": "",
          "type": "address"
        }
      ],
      "payable": false,
      "stateMutability": "view",
      "type": "function"
    },
    {
      "constant": true,
      "inputs": [
        {
          "name": "",
          "type": "uint256"
        }
      ],
      "name": "hashes",
      "outputs": [
        {
          "name": "",
          "type": "string"
        }
      ],
      "payable": false,
      "stateMutability": "view",
      "type": "function"
    },
    {
      "constant": true,
      "inputs": [
        {
          "name": "",
          "type": "uint256"
        }
      ],
      "name": "comments",
      "outputs": [
        {
          "name": "",
          "type": "string"
        }
      ],
      "payable": false,
      "stateMutability": "view",
      "type": "function"
    },
    {
      "constant": false,
      "inputs": [
        {
          "name": "comment",
          "type": "string"
        },
        {
          "name": "rati",
          "type": "uint256"
        },
        {
          "name": "hashf",
          "type": "string"
        }
      ],
      "name": "pushAll",
      "outputs": [
        {
          "name": "a",
          "type": "bool"
        }
      ],
      "payable": false,
      "stateMutability": "nonpayable",
      "type": "function"
    },
    {
      "constant": false,
      "inputs": [
        {
          "name": "i",
          "type": "uint256"
        }
      ],
      "name": "pushRating",
      "outputs": [
        {
          "name": "a",
          "type": "bool"
        }
      ],
      "payable": false,
      "stateMutability": "nonpayable",
      "type": "function"
    },
    {
      "constant": false,
      "inputs": [
        {
          "name": "i",
          "type": "string"
        }
      ],
      "name": "pushHash",
      "outputs": [
        {
          "name": "a",
          "type": "bool"
        }
      ],
      "payable": false,
      "stateMutability": "nonpayable",
      "type": "function"
    },
    {
      "constant": false,
      "inputs": [],
      "name": "pushUser",
      "outputs": [
        {
          "name": "a",
          "type": "bool"
        }
      ],
      "payable": false,
      "stateMutability": "nonpayable",
      "type": "function"
    },
    {
      "constant": true,
      "inputs": [],
      "name": "getLength",
      "outputs": [
        {
          "name": "",
          "type": "uint256"
        }
      ],
      "payable": false,
      "stateMutability": "view",
      "type": "function"
    },
    {
      "constant": true,
      "inputs": [
        {
          "name": "i",
          "type": "uint256"
        }
      ],
      "name": "getCommentAtIndex",
      "outputs": [
        {
          "name": "a",
          "type": "string"
        }
      ],
      "payable": false,
      "stateMutability": "view",
      "type": "function"
    },
    {
      "constant": true,
      "inputs": [
        {
          "name": "i",
          "type": "uint256"
        }
      ],
      "name": "getRatingAtIndex",
      "outputs": [
        {
          "name": "a",
          "type": "uint256"
        }
      ],
      "payable": false,
      "stateMutability": "view",
      "type": "function"
    },
    {
      "constant": true,
      "inputs": [
        {
          "name": "i",
          "type": "uint256"
        }
      ],
      "name": "getHashAtIndex",
      "outputs": [
        {
          "name": "a",
          "type": "string"
        }
      ],
      "payable": false,
      "stateMutability": "view",
      "type": "function"
    },
    {
      "constant": true,
      "inputs": [
        {
          "name": "i",
          "type": "uint256"
        }
      ],
      "name": "getUserAtIndex",
      "outputs": [
        {
          "name": "a",
          "type": "address"
        }
      ],
      "payable": false,
      "stateMutability": "view",
      "type": "function"
    }
  ],
  "bytecode": "0x6060604052341561000f57600080fd5b610ddc8061001e6000396000f3006060604052600436106100c5576000357c0100000000000000000000000000000000000000000000000000000000900463ffffffff168063080c15b7146100ca57806331fd5cbc14610166578063365b98b21461019d57806344d3bb7f1461020057806344e4c3b5146102c1578063469424e21461035d578063501895ae146103985780638ebb4c1514610434578063a19736c2146104d0578063be1c766b146104fd578063f766a2ba14610526578063ff6f94961461055d578063ffcc7bbf146105d2575b600080fd5b34156100d557600080fd5b6100eb6004808035906020019091905050610635565b6040518080602001828103825283818151815260200191508051906020019080838360005b8381101561012b578082015181840152602081019050610110565b50505050905090810190601f1680156101585780820380516001836020036101000a031916815260200191505b509250505060405180910390f35b341561017157600080fd5b61018760048080359060200190919050506106f7565b6040518082815260200191505060405180910390f35b34156101a857600080fd5b6101be600480803590602001909190505061071b565b604051808273ffffffffffffffffffffffffffffffffffffffff1673ffffffffffffffffffffffffffffffffffffffff16815260200191505060405180910390f35b341561020b57600080fd5b6102a7600480803590602001908201803590602001908080601f0160208091040260200160405190810160405280939291908181526020018383808284378201915050505050509190803590602001909190803590602001908201803590602001908080601f0160208091040260200160405190810160405280939291908181526020018383808284378201915050505050509190505061075a565b604051808215151515815260200191505060405180910390f35b34156102cc57600080fd5b6102e2600480803590602001909190505061086a565b6040518080602001828103825283818151815260200191508051906020019080838360005b83811015610322578082015181840152602081019050610307565b50505050905090810190601f16801561034f5780820380516001836020036101000a031916815260200191505b509250505060405180910390f35b341561036857600080fd5b61037e600480803590602001909190505061092c565b604051808215151515815260200191505060405180910390f35b34156103a357600080fd5b6103b96004808035906020019091905050610960565b6040518080602001828103825283818151815260200191508051906020019080838360005b838110156103f95780820151818401526020810190506103de565b50505050905090810190601f1680156104265780820380516001836020036101000a031916815260200191505b509250505060405180910390f35b341561043f57600080fd5b6104556004808035906020019091905050610a1c565b6040518080602001828103825283818151815260200191508051906020019080838360005b8381101561049557808201518184015260208101905061047a565b50505050905090810190601f1680156104c25780820380516001836020036101000a031916815260200191505b509250505060405180910390f35b34156104db57600080fd5b6104e3610ad8565b604051808215151515815260200191505060405180910390f35b341561050857600080fd5b610510610b44565b6040518082815260200191505060405180910390f35b341561053157600080fd5b6105476004808035906020019091905050610b50565b6040518082815260200191505060405180910390f35b341561056857600080fd5b6105b8600480803590602001908201803590602001908080601f01602080910402602001604051908101604052809392919081815260200183838082843782019150505050505091905050610b74565b604051808215151515815260200191505060405180910390f35b34156105dd57600080fd5b6105f36004808035906020019091905050610bbb565b604051808273ffffffffffffffffffffffffffffffffffffffff1673ffffffffffffffffffffffffffffffffffffffff16815260200191505060405180910390f35b61063d610bff565b60028281548110151561064c57fe5b90600052602060002090018054600181600116156101000203166002900480601f0160208091040260200160405190810160405280929190818152602001828054600181600116156101000203166002900480156106eb5780601f106106c0576101008083540402835291602001916106eb565b820191906000526020600020905b8154815290600101906020018083116106ce57829003601f168201915b50505050509050919050565b60018181548110151561070657fe5b90600052602060002090016000915090505481565b60038181548110151561072a57fe5b90600052602060002090016000915054906101000a900473ffffffffffffffffffffffffffffffffffffffff1681565b600080805480600101828161076f9190610c13565b916000526020600020900160008690919091509080519060200190610795929190610c3f565b5050600180548060010182816107ab9190610cbf565b916000526020600020900160008590919091505550600280548060010182816107d49190610c13565b9160005260206000209001600084909190915090805190602001906107fa929190610c3f565b5050600380548060010182816108109190610ceb565b9160005260206000209001600033909190916101000a81548173ffffffffffffffffffffffffffffffffffffffff021916908373ffffffffffffffffffffffffffffffffffffffff16021790555050600190509392505050565b610872610bff565b60008281548110151561088157fe5b90600052602060002090018054600181600116156101000203166002900480601f0160208091040260200160405190810160405280929190818152602001828054600181600116156101000203166002900480156109205780601f106108f557610100808354040283529160200191610920565b820191906000526020600020905b81548152906001019060200180831161090357829003601f168201915b50505050509050919050565b6000600180548060010182816109429190610cbf565b91600052602060002090016000849091909150555060019050919050565b60028181548110151561096f57fe5b90600052602060002090016000915090508054600181600116156101000203166002900480601f016020809104026020016040519081016040528092919081815260200182805460018160011615610100020316600290048015610a145780601f106109e957610100808354040283529160200191610a14565b820191906000526020600020905b8154815290600101906020018083116109f757829003601f168201915b505050505081565b600081815481101515610a2b57fe5b90600052602060002090016000915090508054600181600116156101000203166002900480601f016020809104026020016040519081016040528092919081815260200182805460018160011615610100020316600290048015610ad05780601f10610aa557610100808354040283529160200191610ad0565b820191906000526020600020905b815481529060010190602001808311610ab357829003601f168201915b505050505081565b600060038054806001018281610aee9190610ceb565b9160005260206000209001600033909190916101000a81548173ffffffffffffffffffffffffffffffffffffffff021916908373ffffffffffffffffffffffffffffffffffffffff160217905550506001905090565b60008080549050905090565b6000600182815481101515610b6157fe5b9060005260206000209001549050919050565b600060028054806001018281610b8a9190610c13565b916000526020600020900160008490919091509080519060200190610bb0929190610c3f565b505060019050919050565b6000600382815481101515610bcc57fe5b906000526020600020900160009054906101000a900473ffffffffffffffffffffffffffffffffffffffff169050919050565b602060405190810160405280600081525090565b815481835581811511610c3a57818360005260206000209182019101610c399190610d17565b5b505050565b828054600181600116156101000203166002900490600052602060002090601f016020900481019282601f10610c8057805160ff1916838001178555610cae565b82800160010185558215610cae579182015b82811115610cad578251825591602001919060010190610c92565b5b509050610cbb9190610d43565b5090565b815481835581811511610ce657818360005260206000209182019101610ce59190610d43565b5b505050565b815481835581811511610d1257818360005260206000209182019101610d119190610d43565b5b505050565b610d4091905b80821115610d3c5760008181610d339190610d68565b50600101610d1d565b5090565b90565b610d6591905b80821115610d61576000816000905550600101610d49565b5090565b90565b50805460018160011615610100020316600290046000825580601f10610d8e5750610dad565b601f016020900490600052602060002090810190610dac9190610d43565b5b505600a165627a7a7230582047c5e3fe46f194bc605a0135ed9121915e15c082614c30811898fd5b5cd959300029",
  "source": "pragma solidity ^0.4.17;\r\n\r\ncontract Review {\r\n    string[] public comments;\r\n    //0 = Rejected, 1 = Okay, 2 = Great\r\n    uint[] public rating;\r\n    // Adopting a pet\r\n    string[] public hashes;\r\n    address[] public users;\r\n\r\n    function pushAll(string comment, uint rati, string hashf) public returns (bool a) {\r\n        comments.push(comment);\r\n        rating.push(rati);\r\n        hashes.push(hashf);\r\n        users.push(msg.sender);\r\n        return true;\r\n    }\r\n\r\n    function pushRating(uint i) public returns (bool a) {\r\n        rating.push(i);\r\n        return true;\r\n    }\r\n    \r\n    function pushHash(string i) public returns (bool a) {\r\n        hashes.push(i);\r\n        return true;\r\n    }\r\n\r\n    function pushUser() public returns (bool a) {\r\n        users.push(msg.sender);\r\n        return true;\r\n    }\r\n\r\n    function getLength() public view returns (uint) {\r\n        return comments.length;\r\n    }\r\n\r\n    function getCommentAtIndex(uint i) public view returns (string a) {\r\n        return(comments[i]);\r\n    }\r\n\r\n    function getRatingAtIndex(uint i) public view returns (uint a) {\r\n        return(rating[i]);\r\n    }\r\n    \r\n    function getHashAtIndex(uint i) public view returns (string a) {\r\n        return(hashes[i]);\r\n    }\r\n\r\n    function getUserAtIndex(uint i) public view returns (address a) {\r\n        return(users[i]);\r\n    }\r\n\r\n\r\n}",
  "sourcePath": "C:\\Users\\Kumail\\Documents\\GitHub\\ResearchChain\\contracts\\Review.sol",
  "compiler": {
    "name": "solc",
    "version": "0.4.21+commit.dfe3193c.Emscripten.clang"
  },
  "schemaVersion": "2.0.0",
  "updatedAt": "2018-04-01T13:03:06.756Z"
}