{
  "contractName": "Store",
  "abi": [
    {
      "constant": true,
      "inputs": [
        {
          "name": "",
          "type": "uint256"
        }
      ],
      "name": "users",
      "outputs": [
        {
          "name": "",
          "type": "address"
        }
      ],
      "payable": false,
      "stateMutability": "view",
      "type": "function"
    },
    {
      "constant": false,
      "inputs": [
        {
          "name": "x",
          "type": "string"
        },
        {
          "name": "y",
          "type": "string"
        },
        {
          "name": "z",
          "type": "string"
        }
      ],
      "name": "save",
      "outputs": [
        {
          "name": "",
          "type": "bool"
        }
      ],
      "payable": false,
      "stateMutability": "nonpayable",
      "type": "function"
    },
    {
      "constant": true,
      "inputs": [],
      "name": "getFile",
      "outputs": [
        {
          "name": "",
          "type": "string"
        }
      ],
      "payable": false,
      "stateMutability": "view",
      "type": "function"
    },
    {
      "constant": true,
      "inputs": [],
      "name": "getAll",
      "outputs": [
        {
          "name": "",
          "type": "string"
        }
      ],
      "payable": false,
      "stateMutability": "view",
      "type": "function"
    },
    {
      "constant": true,
      "inputs": [],
      "name": "getName",
      "outputs": [
        {
          "name": "",
          "type": "string"
        }
      ],
      "payable": false,
      "stateMutability": "view",
      "type": "function"
    },
    {
      "constant": false,
      "inputs": [
        {
          "name": "_hash",
          "type": "string"
        }
      ],
      "name": "addPaper",
      "outputs": [],
      "payable": false,
      "stateMutability": "nonpayable",
      "type": "function"
    },
    {
      "constant": true,
      "inputs": [
        {
          "name": "index",
          "type": "uint256"
        }
      ],
      "name": "getPaperAtIndex",
      "outputs": [
        {
          "name": "paper",
          "type": "string"
        }
      ],
      "payable": false,
      "stateMutability": "view",
      "type": "function"
    },
    {
      "constant": true,
      "inputs": [],
      "name": "getLen",
      "outputs": [
        {
          "name": "",
          "type": "uint256"
        }
      ],
      "payable": false,
      "stateMutability": "view",
      "type": "function"
    }
  ],
  "bytecode": "0x6060604052341561000f57600080fd5b610a568061001e6000396000f30060606040526004361061008e576000357c0100000000000000000000000000000000000000000000000000000000900463ffffffff16806317d7de7c146100935780632fa8169214610121578063365b98b2146101af5780634a90be57146102125780634d98f7db1461023b57806353ed5143146102985780637bc313e2146103265780639b6ec14c146103c2575b600080fd5b341561009e57600080fd5b6100a66104bd565b6040518080602001828103825283818151815260200191508051906020019080838360005b838110156100e65780820151818401526020810190506100cb565b50505050905090810190601f1680156101135780820380516001836020036101000a031916815260200191505b509250505060405180910390f35b341561012c57600080fd5b610134610565565b6040518080602001828103825283818151815260200191508051906020019080838360005b83811015610174578082015181840152602081019050610159565b50505050905090810190601f1680156101a15780820380516001836020036101000a031916815260200191505b509250505060405180910390f35b34156101ba57600080fd5b6101d0600480803590602001909190505061060d565b604051808273ffffffffffffffffffffffffffffffffffffffff1673ffffffffffffffffffffffffffffffffffffffff16815260200191505060405180910390f35b341561021d57600080fd5b610225610642565b6040518082815260200191505060405180910390f35b341561024657600080fd5b610296600480803590602001908201803590602001908080601f0160208091040260200160405190810160405280939291908181526020018383808284378201915050505050509190505061064f565b005b34156102a357600080fd5b6102ab61068e565b6040518080602001828103825283818151815260200191508051906020019080838360005b838110156102eb5780820151818401526020810190506102d0565b50505050905090810190601f1680156103185780820380516001836020036101000a031916815260200191505b509250505060405180910390f35b341561033157600080fd5b6103476004808035906020019091905050610736565b6040518080602001828103825283818151815260200191508051906020019080838360005b8381101561038757808201518184015260208101905061036c565b50505050905090810190601f1680156103b45780820380516001836020036101000a031916815260200191505b509250505060405180910390f35b34156103cd57600080fd5b6104a3600480803590602001908201803590602001908080601f0160208091040260200160405190810160405280939291908181526020018383808284378201915050505050509190803590602001908201803590602001908080601f0160208091040260200160405190810160405280939291908181526020018383808284378201915050505050509190803590602001908201803590602001908080601f01602080910402602001604051908101604052809392919081815260200183838082843782019150505050505091905050610843565b604051808215151515815260200191505060405180910390f35b6104c56108d1565b60138054600181600116156101000203166002900480601f01602080910402602001604051908101604052809291908181526020018280546001816001161561010002031660029004801561055b5780601f106105305761010080835404028352916020019161055b565b820191906000526020600020905b81548152906001019060200180831161053e57829003601f168201915b5050505050905090565b61056d6108d1565b60118054600181600116156101000203166002900480601f0160208091040260200160405190810160405280929190818152602001828054600181600116156101000203166002900480156106035780601f106105d857610100808354040283529160200191610603565b820191906000526020600020905b8154815290600101906020018083116105e657829003601f168201915b5050505050905090565b60008160108110151561061c57fe5b016000915054906101000a900473ffffffffffffffffffffffffffffffffffffffff1681565b6000601080549050905090565b6010805480600101828161066391906108e5565b916000526020600020900160008390919091509080519060200190610689929190610911565b505050565b6106966108d1565b60118054600181600116156101000203166002900480601f01602080910402602001604051908101604052809291908181526020018280546001816001161561010002031660029004801561072c5780601f106107015761010080835404028352916020019161072c565b820191906000526020600020905b81548152906001019060200180831161070f57829003601f168201915b5050505050905090565b61073e6108d1565b6010805490508210156108055760108281548110151561075a57fe5b90600052602060002090018054600181600116156101000203166002900480601f0160208091040260200160405190810160405280929190818152602001828054600181600116156101000203166002900480156107f95780601f106107ce576101008083540402835291602001916107f9565b820191906000526020600020905b8154815290600101906020018083116107dc57829003601f168201915b5050505050905061083e565b6040805190810160405280600381526020017f6e756c000000000000000000000000000000000000000000000000000000000081525090505b919050565b6000836011908051906020019061085b929190610911565b508260129080519060200190610872929190610911565b508160139080519060200190610889929190610911565b506010805480600101828161089e91906108e5565b9160005260206000209001600086909190915090805190602001906108c4929190610911565b5050600190509392505050565b602060405190810160405280600081525090565b81548183558181151161090c5781836000526020600020918201910161090b9190610991565b5b505050565b828054600181600116156101000203166002900490600052602060002090601f016020900481019282601f1061095257805160ff1916838001178555610980565b82800160010185558215610980579182015b8281111561097f578251825591602001919060010190610964565b5b50905061098d91906109bd565b5090565b6109ba91905b808211156109b657600081816109ad91906109e2565b50600101610997565b5090565b90565b6109df91905b808211156109db5760008160009055506001016109c3565b5090565b90565b50805460018160011615610100020316600290046000825580601f10610a085750610a27565b601f016020900490600052602060002090810190610a2691906109bd565b5b505600a165627a7a72305820d5d6b8fe2b74d51680b9d6e627cf085f2a09a1865a858b399a65c5ad4e0984440029",
  "source": "pragma solidity ^0.4.17;\r\n\r\ncontract Store {\r\n    //Store the list of ETH addresses\r\n    address[16] public users;\r\n    string[] papers;\r\n    string fileHash;\r\n    string userAddress;\r\n    string userName;\r\n\r\n    function save(string x, string y, string z) public returns (bool) {\r\n        fileHash = x;\r\n        userAddress = y;\r\n        userName = z;\r\n        papers.push(x);\r\n        return true;\r\n    }\r\n\r\n    function getFile() public view returns (string) {\r\n        return fileHash;\r\n    }\r\n\r\n    function getAll() public view returns (string) {\r\n        return fileHash;\r\n    }\r\n\r\n    function getName() public view returns (string) {\r\n        return userName;\r\n    }\r\n\r\n    function addPaper(string _hash) public{\r\n        papers.push(_hash);\r\n    }\r\n    \r\n    function getPaperAtIndex(uint index) public view returns (string paper) {\r\n        if (index < papers.length){\r\n            return papers[index];\r\n        }\r\n        return \"nul\";\r\n    }\r\n\r\n    function getLen() public view returns (uint) {\r\n        return papers.length;\r\n    }\r\n\r\n}",
  "sourcePath": "C:\\Users\\Kumail\\Documents\\GitHub\\ResearchChain\\contracts\\Store.sol",
  "compiler": {
    "name": "solc",
    "version": "0.4.21+commit.dfe3193c.Emscripten.clang"
  },
  "schemaVersion": "2.0.0",
  "updatedAt": "2018-04-01T13:31:01.758Z"
}